:020000040800F2
:1000000000280020051A0008B1150008B7150008DF
:10001000BD150008C3150008C91500080000000040
:10002000000000000000000000000000CF150008E4
:10003000DB15000800000000E7150008F3150008B4
:100040004D1A00084D1A00084D1A00084D1A0008F4
:100050004D1A00084D1A00084D1A00084D1A0008E4
:100060004D1A00084D1A00084D1A00084D1A0008D4
:100070004D1A00084D1A00084D1A00084D1A0008C4
:100080004D1A00084D1A00084D1A00084D1A0008B4
:100090004D1A00084D1A00084D1A00084D1A0008A4
:1000A0004D1A00084D1A00084D1A00084D1A000894
:1000B000011600084D1A0008000000004D1A000843
:1000C0004D1A000800000000000000004D1A000852
:1000D000000000004D1A00084D1A00080000000042
:1000E0004D1A00084D1A00084D1A000800000000C3
:1000F0000000000000000000000000000000000000
:0C01000000000000000000005FF808F1A3
:10010C0010B5054C237833B9044B13B10448AFF345
:10011C0000800123237010BD880000200000000027
:10012C007C30000808B5034B1BB103490348AFF3FF
:10013C00008008BD000000008C0000207C3000080E
:10014C0080B400AF064B1B68012B04D1044B00227A
:10015C001A60012300E000231846BD4680BC70479E
:10016C00A800002080B400AF064B1B68012B04D103
:10017C00044B00221A60012300E000231846BD4600
:10018C0080BC7047AC00002080B483B000AF7860B6
:10019C007B68032B11D07B68032B12DC7B68012B53
:1001AC0003D07B68022B04D00BE0094B01221A60B0
:1001BC0008E0084B01221A6004E0074B01221A6088
:1001CC0000E000BF00BF0C37BD4680BC704700BFCD
:1001DC00A4000020A8000020AC00002080B500AFD7
:1001EC006B4B1B686B4A13606B4B1B68684A136044
:1001FC004FF40051694801F00FFF03461A46664B55
:10020C001A60634B1A68644B1B689A422FD1604B7F
:10021C001A68604B1B689A4229D15E4B1A68604B76
:10022C001B689A420FD05B4B1B685D4A13605C4B9A
:10023C001B68002B1BD15B4B4FF4FA721A60012028
:10024C00FFF7A2FF13E0574B1B68013B554A1360A5
:10025C00544B1B68002B0AD1524B4FF4FA721A60A4
:10026C004F4B1B68002B02D10120FFF78DFF4E4B2B
:10027C001B684E4A13604E4B1B684B4A13604FF47D
:10028C008041464801F0C8FE03461A46484B1A60A6
:10029C00454B1A68464B1B689A422FD1424B1A6841
:1002AC00424B1B689A4229D1404B1A68414B1B6840
:1002BC009A420FD03D4B1B683E4A13603D4B1B6866
:1002CC00002B1BD13C4B4FF4FA721A600220FFF743
:1002DC005BFF13E0384B1B68013B374A1360364B0E
:1002EC001B68002B0AD1344B4FF4FA721A60314B55
:1002FC001B68002B02D10220FFF746FF2F4B1B6817
:10030C002F4A13602F4B1B682C4A13604FF400418B
:10031C00224801F081FE03461A462A4B1A60274BED
:10032C001A68284B1B689A422FD1244B1A68244B0D
:10033C001B689A4229D1224B1A68234B1B689A429C
:10034C000FD01F4B1B68204A13601F4B1B68002BE0
:10035C001BD11E4B4FF4FA721A600320FFF714FFE7
:10036C0013E01A4B1B68013B184A1360174B1B68B0
:10037C00002B0AD1154B4FF4FA721A60124B1B6802
:10038C00002B02D10320FFF7FFFE00BF80BD00BF92
:10039C000400002008000020000000200010014094
:1003AC000C00002030000020140000201800002059
:1003BC00100000201C00002034000020240000202D
:1003CC0028000020200000202C00002038000020F5
:1003DC0080B500AF984B1B68013B042B00F22981C0
:1003EC0001A252F823F000BF09040008BF04000862
:1003FC00150500087F050008D5050008012202211B
:10040C008E4801F020FE012204218C4801F01BFED5
:10041C0001220821894801F016FE0122102187488B
:10042C0001F011FE01222021844801F00CFE012272
:10043C004021824801F007FE012280217F4801F013
:10044C0002FE01224FF480717C4801F0FCFD012278
:10045C004FF40071794801F0F6FD01224FF48061F0
:10046C00764801F0F0FD01224FF40061734801F071
:10047C00EAFD01224FF48051704801F0E4FD704B0D
:10048C001B68704A82FB03129211DB17D31A6E4A57
:10049C0013606E4B1B686B4A82FB03129211DB17C5
:1004AC00D31A6B4A136000F041FB634B02221A60B3
:1004BC00C0E00B2001F0AEF8634B1B68013B624AB5
:1004CC001360634B1B68013B614A1360614B1B68F3
:1004DC00A3F57A735F4A13605E4B1B68002B10D137
:1004EC00554B03221A605C4B1B68564A82FB031265
:1004FC009211DB17D31A564A1360564B4FF4FA621B
:10050C001A6000F013FB95E00C2001F083F84E4BC1
:10051C001B68013B4C4A13604D4B1B68013B4C4A1A
:10052C0013604C4B1B68A3F57A734A4A1360494B12
:10053C001B68002B1AD1404B04221A60434B1B68DA
:10054C00404A82FB03129211DB17D31A3E4A136006
:10055C003B4B1B683B4A82FB03129211DB17D31AED
:10056C003B4A13603B4B40F6B8321A6000F0DEFA9F
:10057C0060E00D2001F04EF8334B1B68013B324A12
:10058C001360334B1B68013B314A1360314B1B68C2
:10059C00A3F57A732F4A13602E4B1B68002B10D1D6
:1005AC00254B05221A602C4B1B68264A82FB031232
:1005BC009211DB17D31A244A1360264B4FF4FA62BC
:1005CC001A6000F0B3FA35E00E2001F023F81E4B50
:1005DC001B68013B1C4A13601D4B1B68013B1C4AEA
:1005EC0013601C4B1B68A3F57A731A4A1360194BE2
:1005FC001B68002B1AD1104B02221A60104B1B687F
:10060C00104A82FB03129211DB17D31A0E4A1360A5
:10061C000E4B1B680B4A82FB03129211DB17D31A89
:10062C000B4A13600B4B40F6B8321A6000F07EFA9E
:10063C0000E000BF00BF80BD480000200008014062
:10064C003C000020D34D6210B80000204400002074
:10065C00BC000020780000204000002080B500AFD6
:10066C001D4B1B68012B32D11B4B00221A601B4BFC
:10067C001B68153B032B2CD801A252F823F000BFAA
:10068C009D060008B1060008BF060008CD0600084C
:10069C00134B06221A60114B16221A600F2000F021
:1006AC00B9FF17E00D4B17221A60102000F0B2FFB3
:1006BC0010E00A4B18221A60112000F0ABFF09E081
:1006CC00064B15221A60064B01221A6002E000BF8D
:1006DC0000E000BF00BF80BDA40000204C00002043
:1006EC004800002080B500AF364B1B68182B42D059
:1006FC00182B5EDC162B02D0172B1ED059E0FFF7FF
:10070C001FFD0346002B0ED02F4B1B6803F57A738D
:10071C002D4A13602C4B1B682C4A934203DD2A4B49
:10072C004FF47A721A60FFF71DFD0346002B42D07E
:10073C00254B1B68264A13603DE0FFF701FD03467D
:10074C00002B0ED0234B1B6803F57A73214A1360E0
:10075C00204B1B681D4A934203DD1E4B4FF47A72EB
:10076C001A60FFF7FFFC0346002B26D0194B1B68C1
:10077C00194A136021E0FFF7E3FC0346002B0ED06F
:10078C00164B1B6803F57A73144A1360134B1B68E2
:10079C000E4A934203DD114B4FF47A721A60FFF745
:1007AC00E1FC0346002B0AD00C4B1B680C4A13606F
:1007BC0005E000BF04E000BF02E000BF00E000BFA6
:1007CC0000BF80BD4C00002050000020B88201000A
:1007DC003C00002054000020400000205800002065
:1007EC004400002080B582B000AF78607B68002B9D
:1007FC0025D100221021CC4801F025FC002220211B
:10080C00C94801F020FC00224021C74801F01BFC24
:10081C0000228021C44801F016FC00224FF48071A4
:10082C00C14801F010FC00224FF40071BE4801F0E9
:10083C000AFC01224FF48061BB4801F004FC7B6888
:10084C00012B25D101221021B74801F0FCFB00221D
:10085C002021B54801F0F7FB00224021B24801F0FD
:10086C00F2FB01228021B04801F0EDFB01224FF494
:10087C008071AD4801F0E7FB01224FF40071AA48EA
:10088C0001F0E1FB01224FF48061A74801F0DBFB92
:10089C007B68022B25D100221021A34801F0D3FB49
:1008AC0000222021A04801F0CEFB012240219E48CD
:1008BC0001F0C9FB002280219B4801F0C4FB0022FF
:1008CC004FF48071984801F0BEFB01224FF4007187
:1008DC00954801F0B8FB00224FF48061924801F07A
:1008EC00B2FB7B68032B25D1002210218E4801F02E
:1008FC00AAFB002220218C4801F0A5FB00224021FC
:10090C00894801F0A0FB00228021874801F09BFB65
:10091C0001224FF48071844801F095FB01224FF4C1
:10092C000071814801F08FFB00224FF480617E48FA
:10093C0001F089FB7B68042B25D1012210217A4818
:10094C0001F081FB00222021774801F07CFB002282
:10095C004021754801F077FB01228021724801F09B
:10096C0072FB01224FF480716F4801F06CFB002286
:10097C004FF400716C4801F066FB00224FF480616B
:10098C00694801F060FB7B68052B25D10022102102
:10099C00654801F058FB01222021634801F053FB0C
:1009AC0000224021604801F04EFB002280215E486D
:1009BC0001F049FB01224FF480715B4801F043FBCD
:1009CC0000224FF40071584801F03DFB00224FF417
:1009DC008061554801F037FB7B68062B25D100223E
:1009EC001021514801F02FFB012220214E4801F02B
:1009FC002AFB002240214C4801F025FB00228021DB
:100A0C00494801F020FB00224FF48071464801F068
:100A1C001AFB00224FF40071434801F014FB002232
:100A2C004FF48061404801F00EFB7B68072B25D109
:100A3C00002210213C4801F006FB002220213A48FC
:100A4C0001F001FB00224021374801F0FCFA0122A1
:100A5C008021354801F0F7FA01224FF480713248B9
:100A6C0001F0F1FA01224FF400712F4801F0EBFA7A
:100A7C0001224FF480612C4801F0E5FA7B68082BC9
:100A8C0025D100221021284801F0DDFA0022202176
:100A9C00254801F0D8FA00224021234801F0D3FA6E
:100AAC0000228021204801F0CEFA00224FF4807100
:100ABC001D4801F0C8FA00224FF400711A4801F0E9
:100ACC00C2FA00224FF48061174801F0BCFA7B682F
:100ADC00092B25D100221021134801F0B4FA002271
:100AEC002021114801F0AFFA002240210E4801F0FC
:100AFC00AAFA002280210C4801F0A5FA01224FF439
:100B0C008071094801F09FFA00224FF400710648E9
:100B1C0001F099FA00224FF48061034801F093FA36
:100B2C0000BF0837BD4680BD000C014080B400AF4B
:100B3C001A4B1B681A4A82FB03129210DB17D31A4A
:100B4C00184A1360154B1968154B83FB01239A1037
:100B5C00CB17D21A13469B0013445B00CA1A114BD5
:100B6C005A60114B1B680E4A82FB03129210DB1762
:100B7C00D31A0C4A93600C4B1968094B83FB012365
:100B8C009A10CB17D21A13469B0013445B00CA1A57
:100B9C00044BDA6000BFBD4680BC7047B800002033
:100BAC00676666665C000020BC00002080B584B0DF
:100BBC0000AFB24B1B68182B0ED0182B10DC162B69
:100BCC0002D0172B04D00BE0AD4B1B68FB6008E088
:100BDC00AC4B1B68FB6004E0AB4B1B68FB6000E09C
:100BEC0000BFFB68A94A82FB03121213DB17D31A4E
:100BFC00BB60FB68A64A82FB03129211DB17D21A68
:100C0C00A44B83FB02139910D317C91A0B469B00F4
:100C1C000B445B00D31A7B609F4B1B68062B00F0C8
:100C2C0084809E4B1B68032B72D801A252F823F0D0
:100C3C004D0C0008810C0008B50C0008E90C0008EC
:100C4C0000220121964801F0FEF90122022194486C
:100C5C0001F0F9F901220421914801F0F4F9012283
:100C6C0008218F4801F0EFF98E4B1B681846FFF7EF
:100C7C00B9FD4EE001220121894801F0E4F900227E
:100C8C000221874801F0DFF901220421844801F098
:100C9C00DAF901220821824801F0D5F9814B5B6811
:100CAC001846FFF79FFD34E0012201217C4801F03A
:100CBC00CAF9012202217A4801F0C5F90022042167
:100CCC00774801F0C0F901220821754801F0BBF901
:100CDC00744B9B681846FFF785FD1AE00122012131
:100CEC006F4801F0B0F9012202216D4801F0ABF917
:100CFC00012204216A4801F0A6F900220821684863
:100D0C0001F0A1F9674BDB681846FFF76BFD00E0BB
:100D1C0000BF624B1B680133604A13605F4B1B685A
:100D2C00032B02DD5D4B00221A605B4B1B68062B0C
:100D3C0040F0CB805C4B1B68032B00F29B8001A224
:100D4C0052F823F0610D0008910D0008C10D000848
:100D5C00210E000800220121514801F074F90122F2
:100D6C0002214F4801F06FF9012204214C4801F097
:100D7C006AF9012208214A4801F065F9B868FFF7C1
:100D8C0031FD96E001220121454801F05CF9002279
:100D9C000221434801F057F901220421404801F097
:100DAC0052F9012208213E4801F04DF97868FFF70D
:100DBC0019FD7EE001220121394801F044F901229C
:100DCC000221374801F03FF900220421344801F098
:100DDC003AF901220821324801F035F9274B1B68FA
:100DEC00162B04D1314B1B681846FFF7FBFC234B29
:100DFC001B68172B04D12D4B5B681846FFF7F2FCD0
:100E0C001E4B1B68182B37D1284B9B681846FFF7D5
:100E1C00E9FC31E001220121214801F014F9012201
:100E2C0002211F4801F00FF9012204211C4801F096
:100E3C000AF9002208211A4801F005F90F4B1B682A
:100E4C00162B04D1194B1B681846FFF7CBFC0B4B28
:100E5C001B68172B04D1154B5B681846FFF7C2FCB7
:100E6C00064B1B68182B23D1104B9B681846FFF7B9
:100E7C00B9FC1DE000BF1CE000BF1AE04C000020D4
:100E8C00500000205400002058000020AD8BDB687F
:100E9C00D34D62106766666648000020B0000020E3
:100EAC00000C01405C000020B40000206C0000200D
:100EBC0000BF084B1B680133064A1360054B1B68C7
:100ECC00032B02DD034B00221A6000BF1037BD4616
:100EDC0080BD00BFB400002080B500AF214B1B6863
:100EEC00162B10D10221204801F0C5F810211E4804
:100EFC0001F0C1F880211C4801F0BDF84FF480616D
:100F0C00194801F0B8F8174B1B68172B11D10821A1
:100F1C00154801F0B0F84021134801F0ACF84FF43B
:100F2C000071114801F0A7F84FF480510E4801F000
:100F3C00A2F80C4B1B68182B11D104210A4801F0A4
:100F4C009AF82021084801F096F84FF48071064871
:100F5C0001F091F84FF40061034801F08CF800BFE8
:100F6C0080BD00BF4C0000200008014080B500AFE0
:100F7C004FF40041024801F07EF800BF80BD00BF75
:100F8C000008014080B500AF00F05CFD00F038F8BF
:100F9C0000F0BEF800F070F8124801F0B1FC00F05F
:100FAC003AF964220021104800F0BCF964220021B7
:100FBC000E4800F0B7F9192201210D4800F0B2F9E2
:100FCC00192200210B4800F0ADF9192200210A4822
:100FDC0000F0A8F919220021084800F0A3F900F04C
:100FEC00F3F9FCE7C0000020790F0008DD030008CE
:100FFC00B90B0008E50E000869060008F1060008A8
:10100C0080B590B000AF07F11803282200211846D4
:10101C0002F026F83B1D00221A605A609A60DA60D2
:10102C001A610223BB610123BB621023FB62002304
:10103C007B6307F11803184601F036F80346002BC2
:10104C0001D000F0E3F80F237B600023BB6000238A
:10105C00FB6000233B6100237B613B1D0021184694
:10106C0001F0A2FA0346002B01D000F0CFF800BF2C
:10107C004037BD4680BD000080B586B000AF07F19B
:10108C00080300221A605A609A60DA603B4600221C
:10109C001A605A601D4B4FF080421A601B4B41F690
:1010AC003F725A60194B00229A60184B0922DA6081
:1010BC00164B00221A61154B00229A61134801F05D
:1010CC00CFFB0346002B01D000F0A0F84FF4805367
:1010DC00BB6007F1080319460C4801F04DFD0346AF
:1010EC00002B01D000F092F800233B6000237B60C2
:1010FC003B461946054801F025FF0346002B01D05D
:10110C0000F084F800BF1837BD4680BDC000002039
:10111C0080B588B000AF07F1100300221A605A6046
:10112C009A60DA602F4B9B692E4A43F0100393614F
:10113C002C4B9B6903F01003FB60FB68294B9B69EC
:10114C00284A43F004039361264B9B6903F0040384
:10115C00BB60BB68234B9B69224A43F00803936135
:10116C00204B9B6903F008037B607B68002249F6E7
:10117C00FE711D4800F067FF002240F2FF711B4812
:10118C0000F061FF4FF460433B6100237B6101235E
:10119C00BB6107F110031946154800F0C3FD49F671
:1011AC00FE733B6101237B610023BB610223FB6166
:1011BC0007F1100319460C4800F0B4FD40F2FF7320
:1011CC003B6101237B610023BB610223FB6107F1BF
:1011DC0010031946054800F0A5FD00BF2037BD4699
:1011EC0080BD00BF0010024000080140000C01400F
:1011FC000010014080B582B000AF786000F024F898
:10120C00FEF7ECFF00BF0837BD4680BD80B400AFD1
:10121C0072B600BFFEE780B582B000AF0023FB7151
:10122C0006E0FB79184600F01DF9FB790133FB71E0
:10123C00FB79272BF5D900F053F900F057F900BFD3
:10124C000837BD4680BD000080B483B000AF0023DA
:10125C00FB715CE0FA79324913469B0013449B0006
:10126C000B441B68002B4FD0FA792D4913469B0079
:10127C0013449B000B4404331B68002B32D1FA79C6
:10128C00274913469B0013449B000B440C331B78DB
:10129C00FA790133D8B2224913469B0013449B00C0
:1012AC000B440C3302461A70FA791D4913469B0005
:1012BC0013449B000B4408331B68002B24D0F97992
:1012CC00FA7917480B469B000B449B0003440833E8
:1012DC001968134813469B0013449B0003440433C2
:1012EC00196011E0FA790E4913469B0013449B00D8
:1012FC000B4404331B68591E094813469B001344C6
:10130C009B00034404331960FB790133FB71FB79B7
:10131C00272B9FD900BF00BF0C37BD4680BC704740
:10132C000801002080B487B000AFF860B9607A6023
:10133C000023FB7502E0FB7D0133FB75FA7D21492F
:10134C0013469B0013449B000B441B68002B02D0DC
:10135C00FB7D272BEFD9FA7D1A4913469B001344CA
:10136C009B000B44FA681A60FA7D164913469B00E1
:10137C0013449B000B440433BA681A60FA7D11497C
:10138C0013469B0013449B000B4408337A681A6085
:10139C00FA7D0C4913469B0013449B000B440C3301
:1013AC0000221A70FA7DF97D064813469B001344FF
:1013BC009B0003441033196000BF1C37BD4680BC32
:1013CC00704700BF0801002080B582B000AF002339
:1013DC00FB7139E0FA79224913469B0013449B00B8
:1013EC000B440C331B78002B2BD0FA791C49134679
:1013FC009B0013449B000B441B689847FA791849CF
:10140C0013469B0013449B000B440C331B78013B8D
:10141C00D8B2134913469B0013449B000B440C3366
:10142C0002461A70FA790E4913469B0013449B002E
:10143C000B4408331B68002B03D1FB79184600F0D2
:10144C0011F8FB790133FB71FB79272BC2D900F022
:10145C003BF800F03FF800BF0837BD4680BD00BF29
:10146C000801002080B483B000AF786015497A6819
:10147C0013469B0013449B000B4400221A60114935
:10148C007A6813469B0013449B000B4404330022E0
:10149C001A600C497A6813469B0013449B000B445A
:1014AC00083300221A6007497A6813469B001344DC
:1014BC009B000B440C3300221A7000BF0C37BD4646
:1014CC0080BC70470801002080B400AF00BFBD464F
:1014DC0080BC704780B400AF00BFBD4680BC704775
:1014EC0080B400AF00BFBD4680BC704780B400AF75
:1014FC0000BFBD4680BC704780B485B000AF154BB3
:10150C009B69144A43F001039361124B9B6903F0EE
:10151C000103BB60BB680F4BDB690E4A43F0805381
:10152C00D3610C4BDB6903F080537B607B680A4B07
:10153C005B68FB60FB6823F0E063FB60FB6843F0D7
:10154C000073FB60044AFB68536000BF1437BD4650
:10155C0080BC7047001002400000014080B584B090
:10156C0000AF78607B681B68B3F1804F13D10C4BD4
:10157C00DB690B4A43F00103D361094BDB6903F0D0
:10158C000103FB60FB68002200211C2000F093FB90
:10159C001C2000F0ACFB00BF1037BD4680BD00BF67
:1015AC000010024080B400AFFEE780B400AFFEE74D
:1015BC0080B400AFFEE780B400AFFEE780B400AFAC
:1015CC00FEE780B400AF00BFBD4680BC704780B45E
:1015DC0000AF00BFBD4680BC704780B400AF00BFF9
:1015EC00BD4680BC704780B500AF00F071FA00BFFB
:1015FC0080BD000080B500AF024801F0CDF900BFFE
:10160C0080BD00BFC000002080B400AF00BFBD464D
:10161C0080BC704780B582B000AF78607B680B3BB4
:10162C00062B00F2E18101A252F823F055160008B6
:10163C00D91600085D170008E117000865180008A6
:10164C00E91800087119000800220221C44800F0B2
:10165C00FAFC00220421C24800F0F5FC012208210A
:10166C00BF4800F0F0FC01221021BD4800F0EBFC5B
:10167C0001222021BA4800F0E6FC01224021B848A2
:10168C0000F0E1FC00228021B54800F0DCFC0022D7
:10169C004FF48071B24800F0D6FC01224FF4007177
:1016AC00AF4800F0D0FC01224FF48061AC4800F050
:1016BC00CAFC01224FF40061A94800F0C4FC0122CD
:1016CC004FF48051A64800F0BEFC8EE100220221AE
:1016DC00A34800F0B8FC01220421A14800F0B3FC9F
:1016EC00002208219E4800F0AEFC012210219C48EB
:1016FC0000F0A9FC01222021994800F0A4FC012251
:10170C004021974800F09FFC00228021944800F073
:10171C009AFC01224FF48071914800F094FC002255
:10172C004FF400718E4800F08EFC01224FF4806162
:10173C008B4800F088FC01224FF40061884800F0CF
:10174C0082FC01224FF48051854800F07CFC4CE176
:10175C0001220221824800F076FC012204218048FB
:10176C0000F071FC012208217D4800F06CFC002285
:10177C0010217B4800F067FC00222021784800F003
:10178C0062FC01224021764800F05DFC01228021A0
:10179C00734800F058FC01224FF48071704800F03F
:1017AC0052FC01224FF400716D4800F04CFC0022F9
:1017BC004FF480616A4800F046FC00224FF400614F
:1017CC00674800F040FC01224FF48051644800F05F
:1017DC003AFC0AE101220221614800F034FC0122AA
:1017EC0004215F4800F02FFC012208215C4800F026
:1017FC002AFC002210215A4800F025FC012220214D
:10180C00574800F020FC00224021554800F01BFCFA
:10181C0001228021524800F016FC01224FF4807105
:10182C004F4800F010FC01224FF400714C4800F0BE
:10183C000AFC00224FF48061494800F004FC0122AC
:10184C004FF40061464800F0FEFB00224FF480513B
:10185C00434800F0F8FBC8E000220221404800F0A9
:10186C00F2FB012204213E4800F0EDFB012208218D
:10187C003B4800F0E8FB00221021394800F0E3FB64
:10188C0001222021364800F0DEFB012240213448A1
:10189C0000F0D9FB00228021314800F0D4FB01225A
:1018AC004FF480712E4800F0CEFB01224FF40071F2
:1018BC002B4800F0C8FB00224FF48061284800F050
:1018CC00C2FB01224FF40061254800F0BCFB012251
:1018DC004FF48051224800F0B6FB86E00122022131
:1018EC001F4800F0B0FB012204211D4800F0ABFBA7
:1018FC00002208211A4800F0A6FB012210211848EA
:10190C0000F0A1FB01222021154800F09CFB0022D5
:10191C004021134800F097FB01228021104800F071
:10192C0092FB01224FF480710D4800F08CFB0022D9
:10193C004FF400710A4800F086FB01224FF48061DD
:10194C00074800F080FB01224FF40061044800F0CE
:10195C007AFB00224FF48051014800F074FB44E004
:10196C000008014001220221224800F06CFB0022F9
:10197C000421204800F067FB012208211D4800F0DB
:10198C0062FB012210211B4800F05DFB002220218C
:10199C00184800F058FB01224021164800F053FB78
:1019AC0001228021134800F04EFB00224FF480717D
:1019BC00104800F048FB01224FF400710D4800F074
:1019CC0042FB01224FF480610A4800F03CFB0022EC
:1019DC004FF40061074800F036FB01224FF48051B0
:1019EC00044800F030FB00E000BF00BF0837BD46E4
:1019FC0080BD00BF00080140FFF706FE0B480C49F4
:101A0C000C4A002302E0D458C4500433C4188C424E
:101A1C00F9D3094A094C002301E013600432A242B5
:101A2C00FBD301F0F9FAFFF7ADFA70470000002084
:101A3C0088000020C0300008880000202C04002002
:101A4C00FEE7000080B500AF084B1B68074A43F067
:101A5C0010031360032000F023F90F2000F008F8A6
:101A6C00FFF74AFD0023184680BD00BF002002404E
:101A7C0080B582B000AF7860124B1A68124B1B789D
:101A8C0019464FF47A73B3FBF1F3B2FBF3F3184638
:101A9C0000F03BF90346002B01D001230EE07B68DC
:101AAC000F2B0AD8002279684FF0FF3000F003F9B1
:101ABC00064A7B681360002300E0012318460837B0
:101ACC00BD4680BD7C0000208400002080000020EA
:101ADC0080B400AF054B1B781A46054B1B681344AA
:101AEC00034A136000BFBD4680BC704784000020D1
:101AFC002804002080B400AF024B1B681846BD467A
:101B0C0080BC70472804002080B485B000AF78609A
:101B1C007B6803F00703FB600C4BDB68BB60BA68A7
:101B2C004FF6FF031340BB60FB681A02BB681343FC
:101B3C0043F0BF6343F40033BB60044ABB68D3601B
:101B4C0000BF1437BD4680BC704700BF00ED00E0FD
:101B5C0080B400AF044BDB681B0A03F00703184684
:101B6C00BD4680BC704700BF00ED00E080B483B080
:101B7C0000AF0346FB7197F90730002B0BDBFB79A9
:101B8C0003F01F02064997F907305B09012000FAA0
:101B9C0002F241F8232000BF0C37BD4680BC7047D1
:101BAC0000E100E080B483B000AF03463960FB7104
:101BBC0097F90730002B0ADB3B68DAB20C4997F92E
:101BCC0007301201D2B20B4483F800230AE03B68C1
:101BDC00DAB20849FB7903F00F03043B1201D2B2CD
:101BEC000B441A7600BF0C37BD4680BC704700BF53
:101BFC0000E100E000ED00E080B489B000AFF860D7
:101C0C00B9607A60FB6803F00703FB61FB69C3F101
:101C1C000703042B28BF0423BB61FB690433062B89
:101C2C0002D9FB69033B00E000237B614FF0FF32DC
:101C3C00BB6902FA03F3DA43BB681A407B699A402A
:101C4C004FF0FF317B6901FA03F3D9437B680B40FA
:101C5C00134318462437BD4680BC704780B582B00C
:101C6C0000AF78607B68013BB3F1807F01D3012327
:101C7C000FE00A4A7B68013B53600F214FF0FF30A5
:101C8C00FFF790FF054B00229A60044B07221A6065
:101C9C00002318460837BD4680BD00BF10E000E0A9
:101CAC0080B582B000AF78607868FFF72DFF00BF79
:101CBC000837BD4680BD80B586B000AF0346B9601D
:101CCC007A60FB7300237B61FFF742FF78617A68CF
:101CDC00B9687869FFF790FF024697F90F30114603
:101CEC001846FFF75FFF00BF1837BD4680BD80B5B3
:101CFC0082B000AF0346FB7197F907301846FFF727
:101D0C0035FF00BF0837BD4680BD80B582B000AF3F
:101D1C0078607868FFF7A2FF034618460837BD467F
:101D2C0080BD000080B48BB000AF786039600023B8
:101D3C007B6200233B6248E101227B6A02FA03F3D7
:101D4C00FB613B681B68FA691340BB61BA69FB69AC
:101D5C009A4240F037813B685B68A34A93425ED05D
:101D6C00A14A934275D8A14A934258D09F4A9342B4
:101D7C006FD89F4A934252D09D4A934269D89D4A4C
:101D8C0093424CD09B4A934263D89B4A934246D091
:101D9C00994A93425DD8122B2AD8122B59D801A2FA
:101DAC0052F823F02B1E0008051E0008171E000811
:101DBC00591E00085F1E00085F1E00085F1E000809
:101DCC005F1E00085F1E00085F1E00085F1E0008F3
:101DDC005F1E00085F1E00085F1E00085F1E0008E3
:101DEC005F1E00085F1E00080D1E0008211E000863
:101DFC00824A934213D02CE03B68DB683B6229E0BB
:101E0C003B68DB6804333B6224E03B68DB680833E7
:101E1C003B621FE03B68DB680C333B621AE03B68BB
:101E2C009B68002B02D104233B6213E03B689B6848
:101E3C00012B05D108233B627B68FA691A6109E022
:101E4C0008233B627B68FA695A6103E000233B621A
:101E5C0000E000BFBB69FF2B01D87B6801E07B6809
:101E6C0004337B61BB69FF2B02D87B6A9B0002E0C9
:101E7C007B6A083B9B003B617B691A680F213B69BD
:101E8C0001FA03F3DB431A40396A3B6901FA03F3A5
:101E9C001A437B691A603B685B6803F08053002B24
:101EAC0000F09080564B9B69554A43F001039361B7
:101EBC00534B9B6903F00103BB60BB68514A7B6ABF
:101ECC009B08023352F82330FB607B6A03F0030358
:101EDC009B000F2202FA03F3DB43FA681340FB600A
:101EEC007B68494A93420DD07B68484A934207D09D
:101EFC007B68474A934201D1022304E0032302E0AA
:101F0C00012300E000237A6A02F00302920093405E
:101F1C00FA681343FB603B497B6A9B080233FA68FF
:101F2C0041F823203B685B6803F48013002B06D038
:101F3C00384B9A683749BB6913438B6006E0354BC5
:101F4C009A68BB69DB43334913408B603B685B6821
:101F5C0003F40013002B06D02E4BDA682D49BB6915
:101F6C001343CB6006E02B4BDA68BB69DB43294992
:101F7C001340CB603B685B6803F40033002B06D046
:101F8C00244B5A682349BB6913434B6006E0214B31
:101F9C005A68BB69DB431F4913404B603B685B6865
:101FAC0003F48033002B06D01A4B1A681949BB690D
:101FBC0013430B6006E0174B1A68BB69DB431549EA
:101FCC0013400B607B6A01337B623B681A687B6A47
:101FDC0022FA03F3002B7FF4AFAE00BF00BF2C3707
:101FEC00BD4680BC704700BF0000321000003110AD
:101FFC00000022100000211000001210000011102F
:10200C00001002400000014000080140000C01409B
:10201C00001001400004014080B485B000AF78602E
:10202C000B467B807B689A687B881340002B02D020
:10203C000123FB7301E00023FB73FB7B1846143771
:10204C00BD4680BC704780B483B000AF78600B464F
:10205C007B8013467B707B78002B03D07A887B685F
:10206C001A6103E07B881A047B681A6100BF0C3785
:10207C00BD4680BC704780B485B000AF78600B461D
:10208C007B807B68DB68FB607A88FB6813401A04F2
:10209C00FB68D9437B880B401A437B681A6100BFED
:1020AC001437BD4680BC704780B586B000AF7860F1
:1020BC007B68002B01D101236CE27B681B6803F069
:1020CC000103002B00F08780924B5B6803F00C033C
:1020DC00042B0CD08F4B5B6803F00C03082B12D134
:1020EC008C4B5B6803F48033B3F5803F0BD1894B89
:1020FC001B6803F40033002B6CD07B685B68002BEF
:10210C0068D1012346E27B685B68B3F5803F06D15A
:10211C00804B1B687F4A43F4803313602EE07B684E
:10212C005B68002B0CD17B4B1B687A4A23F4803301
:10213C001360784B1B68774A23F4802313601DE0EF
:10214C007B685B68B3F5A02F0CD1724B1B68714A8E
:10215C0043F4802313606F4B1B686E4A43F4803347
:10216C0013600BE06B4B1B686A4A23F480331360DB
:10217C00684B1B68674A23F4802313607B685B6899
:10218C00002B13D0FFF7B6FC386108E0FFF7B2FC68
:10219C0002463B69D31A642B01D90323FAE15D4B48
:1021AC001B6803F40033002BF0D014E0FFF7A2FC03
:1021BC00386108E0FFF79EFC02463B69D31A642B9A
:1021CC0001D90323E6E1534B1B6803F40033002BC6
:1021DC00F0D100E000BF7B681B6803F00203002B0A
:1021EC0063D04C4B5B6803F00C03002B0BD0494BBA
:1021FC005B6803F00C03082B1CD1464B5B6803F4A3
:10220C008033002B16D1434B1B6803F00203002BC9
:10221C0005D07B681B69012B01D00123BAE13D4B32
:10222C001B6823F0F8027B685B69DB0039491343B8
:10223C000B603AE07B681B69002B20D0364B0122E7
:10224C001A60FFF757FC386108E0FFF753FC0246B1
:10225C003B69D31A022B01D903239BE12D4B1B683D
:10226C0003F00203002BF0D02A4B1B6823F0F8027A
:10227C007B685B69DB00274913430B6015E0264B39
:10228C0000221A60FFF736FC386108E0FFF732FCD9
:10229C0002463B69D31A022B01D903237AE11D4B69
:1022AC001B6803F00203002BF0D17B681B6803F062
:1022BC000803002B3AD07B689B69002B19D0174B75
:1022CC0001221A60FFF716FC386108E0FFF712FCD8
:1022DC0002463B69D31A022B01D903235AE10D4B59
:1022EC005B6A03F00203002BF0D0012000F09AFA95
:1022FC001CE00A4B00221A60FFF7FCFB38610FE070
:10230C00FFF7F8FB02463B69D31A022B08D90323CB
:10231C0040E100BF001002400000424280044242F3
:10232C009E4B5B6A03F00203002BE9D17B681B68B0
:10233C0003F00403002B00F0A6800023FB75974BE1
:10234C00DB6903F08053002B0DD1944BDB69934A6E
:10235C0043F08053D361914BDB6903F08053BB6036
:10236C00BB680123FB758E4B1B6803F48073002B39
:10237C0018D18B4B1B688A4A43F480731360FFF7A8
:10238C00B9FB386108E0FFF7B5FB02463B69D31A8D
:10239C00642B01D90323FDE0814B1B6803F480738C
:1023AC00002BF0D07B68DB68012B06D17B4B1B6AC2
:1023BC007A4A43F0010313622DE07B68DB68002B43
:1023CC000CD1764B1B6A754A23F001031362734BD5
:1023DC001B6A724A23F0040313621CE07B68DB68FF
:1023EC00052B0CD16D4B1B6A6C4A43F00403136232
:1023FC006A4B1B6A694A43F0010313620BE0674B9B
:10240C001B6A664A23F001031362644B1B6A634A1E
:10241C0023F0040313627B68DB68002B15D0FFF7F5
:10242C0069FB38610AE0FFF765FB02463B69D31A8A
:10243C0041F28832934201D90323ABE0574B1B6A1C
:10244C0003F00203002BEED014E0FFF753FB3861CE
:10245C000AE0FFF74FFB02463B69D31A41F2883280
:10246C00934201D9032395E04C4B1B6A03F0020302
:10247C00002BEED1FB7D012B05D1484BDB69474A84
:10248C0023F08053D3617B68DB69002B00F08180E3
:10249C00424B5B6803F00C03082B61D07B68DB6953
:1024AC00022B46D13F4B00221A60FFF723FB386109
:1024BC0008E0FFF71FFB02463B69D31A022B01D938
:1024CC00032367E0354B1B6803F00073002BF0D13E
:1024DC007B681B6AB3F5803F08D1304B5B6823F4F3
:1024EC0000327B689B682D4913434B602B4B5B6818
:1024FC0023F474127B68196A7B685B6A0B43274967
:10250C0013434B60274B01221A60FFF7F3FA386133
:10251C0008E0FFF7EFFA02463B69D31A022B01D908
:10252C00032337E01D4B1B6803F00073002BF0D026
:10253C002FE01C4B00221A60FFF7DCFA386108E030
:10254C00FFF7D8FA02463B69D31A022B01D90323B1
:10255C0020E0124B1B6803F00073002BF0D118E045
:10256C007B68DB69012B01D1012313E00B4B5B680A
:10257C00FB60FB6803F480327B681B6A9A4206D1CD
:10258C00FB6803F470127B685B6A9A4201D00123EA
:10259C0000E0002318461837BD4680BD00100240ED
:1025AC00007000406000424280B584B000AF78609B
:1025BC0039607B68002B01D10123D0E06A4B1B688A
:1025CC0003F007033A689A4210D9674B1B6823F053
:1025DC00070265493B6813430B60634B1B6803F0B0
:1025EC0007033A689A4201D00123B8E07B681B6864
:1025FC0003F00203002B20D07B681B6803F004035C
:10260C00002B05D0594B5B68584A43F4E063536088
:10261C007B681B6803F00803002B05D0534B5B68E9
:10262C00524A43F460535360504B5B6823F0F00202
:10263C007B689B684D4913434B607B681B6803F0B8
:10264C000103002B40D07B685B68012B07D1474B03
:10265C001B6803F40033002B15D101237FE07B684A
:10266C005B68022B07D1414B1B6803F00073002BF6
:10267C0009D1012373E03D4B1B6803F00203002BCF
:10268C0001D101236BE0394B5B6823F003027B68BB
:10269C005B68364913434B60FFF72CFAF8600AE08D
:1026AC00FFF728FA0246FB68D31A41F288329342AC
:1026BC0001D9032353E02D4B5B6803F00C027B68BC
:1026CC005B689B009A42EBD1274B1B6803F0070316
:1026DC003A689A4210D2244B1B6823F00702224915
:1026EC003B6813430B60204B1B6803F007033A68ED
:1026FC009A4201D0012332E07B681B6803F004038B
:10270C00002B08D0194B5B6823F4E0627B68DB6814
:10271C00164913434B607B681B6803F00803002BBE
:10272C0009D0124B5B6823F460527B681B69DB0099
:10273C000E4913434B6000F021F802460B4B5B68CB
:10274C001B0903F00F030A49CB5C22FA03F3094A75
:10275C001360094B1B681846FFF78AF900231846CB
:10276C001037BD4680BD00BF002002400010024063
:10277C00943000087C0000208000002080B487B0DA
:10278C0000AF0023FB600023BB6000237B610023B0
:10279C007B6000233B611E4B5B68FB60FB6803F0B6
:1027AC000C03042B02D0082B03D027E0194B3B6100
:1027BC0027E0FB689B0C03F00F03174AD35C7B608C
:1027CC00FB6803F48033002B10D0114B5B685B0C5F
:1027DC0003F00103114AD35CBB607B680D4A02FB1A
:1027EC0003F2BB68B2FBF3F37B6104E07B680C4A39
:1027FC0002FB03F37B617B693B6102E0054B3B61B0
:10280C0000BF3B6918461C37BD4680BC704700BFF3
:10281C000010024000127A00A4300008B430000806
:10282C0000093D0080B485B000AF78600A4B1B688E
:10283C000A4AA2FB03235B0A7A6802FB03F3FB60E0
:10284C0000BFFB685A1EFA60002BF9D100BF00BF15
:10285C001437BD4680BC70477C000020D34D6210FD
:10286C0080B582B000AF78607B68002B01D101236A
:10287C0041E07B6893F83D30DBB2002B06D17B68DE
:10288C00002283F83C207868FEF768FE7B68022201
:10289C0083F83D207B681A687B6804331946104620
:1028AC0000F056FA7B68012283F846207B680122EF
:1028BC0083F83E207B68012283F83F207B6801224D
:1028CC0083F840207B68012283F841207B68012239
:1028DC0083F842207B68012283F843207B68012225
:1028EC0083F844207B68012283F845207B68012211
:1028FC0083F83D20002318460837BD4680BD0000F4
:10290C0080B485B000AF78607B6893F83D30DBB263
:10291C00012B01D0012335E07B68022283F83D2096
:10292C007B681B68DA687B681B6842F00102DA601E
:10293C007B681B68164A934209D07B681B68B3F10D
:10294C00804F04D07B681B68124A934211D17B687C
:10295C001B689B6803F00703FB60FB68062B10D019
:10296C007B681B681A687B681B6842F001021A605E
:10297C0007E07B681B681A687B681B6842F00102E1
:10298C001A60002318461437BD4680BC704700BF40
:10299C00002C01400004004080B584B000AF78608A
:1029AC007B681B68DB68FB607B681B681B69BB6012
:1029BC00BB6803F00203002B20D0FB6803F002037A
:1029CC00002B1BD07B681B686FF002021A617B68BE
:1029DC0001221A777B681B689B6903F00303002BA9
:1029EC0003D0786800F098F905E0786800F08BF96E
:1029FC00786800F09AF97B6800221A77BB6803F0BC
:102A0C000403002B20D0FB6803F00403002B1BD025
:102A1C007B681B686FF004021A617B6802221A77CC
:102A2C007B681B689B6903F44073002B03D07868A8
:102A3C0000F072F905E0786800F065F9786800F04C
:102A4C0074F97B6800221A77BB6803F00803002B2B
:102A5C0020D0FB6803F00803002B1BD07B681B689D
:102A6C006FF008021A617B6804221A777B681B6876
:102A7C00DB6903F00303002B03D0786800F04CF9FA
:102A8C0005E0786800F03FF9786800F04EF97B6853
:102A9C0000221A77BB6803F01003002B20D0FB68D0
:102AAC0003F01003002B1BD07B681B686FF0100227
:102ABC001A617B6808221A777B681B68DB6903F450
:102ACC004073002B03D0786800F026F905E0786895
:102ADC0000F019F9786800F028F97B6800221A7761
:102AEC00BB6803F00103002B0CD0FB6803F001035F
:102AFC00002B07D07B681B686FF001021A617868A5
:102B0C00FEF778FBBB6803F08003002B0CD0FB684E
:102B1C0003F08003002B07D07B681B686FF08002EA
:102B2C001A61786800F06FFABB6803F04003002B61
:102B3C000CD0FB6803F04003002B07D07B681B68AC
:102B4C006FF040021A61786800F0F8F8BB6803F087
:102B5C002003002B0CD0FB6803F02003002B07D0C4
:102B6C007B681B686FF020021A61786800F042FAEB
:102B7C0000BF1037BD4680BD80B584B000AF786013
:102B8C0039600023FB737B6893F83C30012B01D137
:102B9C000223B4E07B68012283F83C207B6802228C
:102BAC0083F83D207B681B689B68BB60BB6823F087
:102BBC007703BB60BB6823F47F43BB607B681B68F7
:102BCC00BA689A603B681B68B3F5005F3ED0B3F5FA
:102BDC00005F00F28780B3F5805F00F08680B3F56C
:102BEC00805F7FD8702B1AD0702B7BD8602B50D085
:102BFC00602B77D8502B3CD0502B73D8402B58D00F
:102C0C00402B6FD8302B64D0302B6BD8202B60D05E
:102C1C00202B67D8002B5CD0102B5AD062E07B683D
:102C2C0018683B6899683B685A683B68DB6800F039
:102C3C006AF97B681B689B68BB60BB6843F07703D1
:102C4C00BB607B681B68BA689A604FE07B68186849
:102C5C003B6899683B685A683B68DB6800F053F93D
:102C6C007B681B689A687B681B6842F480429A6098
:102C7C003CE07B6818683B6859683B68DB681A461F
:102C8C0000F0CAF87B681B685021184600F021F947
:102C9C002CE07B6818683B6859683B68DB681A460F
:102CAC0000F0E8F87B681B686021184600F011F909
:102CBC001CE07B6818683B6859683B68DB681A46FF
:102CCC0000F0AAF87B681B684021184600F001F957
:102CDC000CE07B681A683B681B681946104600F0CC
:102CEC00F8F803E00123FB7300E000BF7B680122CE
:102CFC0083F83D207B68002283F83C20FB7B184640
:102D0C001037BD4680BD80B483B000AF786000BF83
:102D1C000C37BD4680BC704780B483B000AF786080
:102D2C0000BF0C37BD4680BC704780B483B000AF89
:102D3C00786000BF0C37BD4680BC704780B483B050
:102D4C0000AF786000BF0C37BD4680BC70470000F8
:102D5C0080B485B000AF786039607B681B68FB601D
:102D6C007B682B4A934207D07B68B3F1804F03D02A
:102D7C007B68284A934208D1FB6823F07003FB6000
:102D8C003B685B68FA681343FB607B68204A93429C
:102D9C0007D07B68B3F1804F03D07B681D4A934208
:102DAC0008D1FB6823F44073FB603B68DB68FA686E
:102DBC001343FB60FB6823F080023B685B691343A1
:102DCC00FB607B68FA681A603B689A687B68DA6219
:102DDC003B681A687B689A627B680D4A934203D100
:102DEC003B681A697B681A637B6801225A617B68AD
:102DFC001B6903F00103002B05D07B681B6923F0D2
:102E0C0001027B681A6100BF1437BD4680BC704755
:102E1C00002C01400004004080B487B000AFF86083
:102E2C00B9607A60FB681B6A7B61FB681B6A23F0E4
:102E3C000102FB681A62FB689B693B613B6923F0EA
:102E4C00F0033B617B681B013A6913433B617B696F
:102E5C0023F00A037B617A69BB6813437B61FB68CF
:102E6C003A699A61FB687A691A6200BF1C37BD46E1
:102E7C0080BC704780B487B000AFF860B9607A60EE
:102E8C00FB681B6A7B61FB681B6A23F01002FB6802
:102E9C001A62FB689B693B613B6923F470433B619D
:102EAC007B681B033A6913433B617B6923F0A003E6
:102EBC007B61BB681B017A6913437B61FB683A69D0
:102ECC009A61FB687A691A6200BF1C37BD4680BCE8
:102EDC00704780B485B000AF786039607B689B68C0
:102EEC00FB60FB6823F07003FB603A68FB681343DC
:102EFC0043F00703FB607B68FA689A6000BF1437E5
:102F0C00BD4680BC704780B487B000AFF860B96034
:102F1C007A603B60FB689B687B617B6923F47F4331
:102F2C007B613B681A027B681A43BB6813437A695E
:102F3C0013437B61FB687A699A6000BF1C37BD46FE
:102F4C0080BC704780B485B000AF786039607B6816
:102F5C0093F83C30012B01D1022341E07B68012224
:102F6C0083F83C207B68022283F83D207B681B6839
:102F7C005B68FB607B681B689B68BB60FB6823F02D
:102F8C007003FB603B681B68FA681343FB607B684B
:102F9C001B68FA685A607B681B68144A934209D014
:102FAC007B681B68B3F1804F04D07B681B68104AA8
:102FBC0093420CD1BB6823F08003BB603B685B6819
:102FCC00BA681343BB607B681B68BA689A607B68FD
:102FDC00012283F83D207B68002283F83C200023EB
:102FEC0018461437BD4680BC704700BF002C01400A
:102FFC000004004080B483B000AF786000BF0C3791
:10300C00BD4680BC704780B483B000AF786000BF11
:10301C000C37BD4680BC704770B500260C4D0D4C6E
:10302C00641BA410A64209D100F022F800260A4D18
:10303C000A4C641BA410A64205D170BD55F8043B84
:10304C0098470136EEE755F8043B98470136F2E70E
:10305C00B8300008B8300008B8300008BC300008A0
:10306C0003460244934200D1704703F8011BF9E771
:10307C00F8B500BFF8BC08BC9E467047F8B500BF59
:08308C00F8BC08BC9E46704729
:103094000000000000000000010203040607080904
:1030A40002030405060708090A0B0C0D0E0F101085
:0430B4000102000015
:0430B80031010008DA
:0430BC000D010008FA
:1030C00001000000010000000100000001000000FC
:1030D00001000000010000000100000001000000EC
:1030E00001000000010000000100000001000000DC
:1030F000F4010000F4010000F40100008813000056
:10310000D0070000B80B000001000000150000000F
:1031100088130000D0070000B80B00000100000079
:103120000200000003000000040000000200000094
:103130000300000004000000B80B000000127A0039
:08314000100000000100000076
:0400000508001A05D0
:00000001FF
